:060000000A128A11142906
:10000800F000030EF1000B1810200B191820710EC8
:100018008300F00E700E090003138312061C850A74
:10002800861C85030B1008007208323A03195E21FA
:0E00380003138312B23081000B11F20A08008C
:100200008A010A140F3982073F3406345B344F34B5
:1002100066346D347D3407347F346F3477347C3406
:1002200039345E3479347134222151210608402159
:100230004A2174080A3A031966217308063A031919
:100240007221192903178316880189010313831664
:100250000510851005118511870188010614861483
:1002600003138316811303138316151495140313B4
:10027000831285013F30870088000030F2000800BB
:100280008B178B158B160B100B110313831616147B
:1002900096140800031383160F140F178F160F12EE
:1002A00008000313831681128111011581140114B2
:1002B00003138312B23081000B110800F201F40A1B
:1002C000740800210313831288000800F4013F30F2
:1002D000031383128800F30A7308002103138312A7
:1002E00087000800F401F3013F30031383128800F4
:0802F0000313831287000800CC
:04400E00D420FF3F7C
:00000001FF
